:060000000A128A11EE2F26
:100CBA00F601F70101300A128A1191260A128A11E5
:100CCA0083120313BA0008007E088A007F08820094
:100CDA000A128A1169260A128A118000840A0408F3
:100CEA007D0603190034FF0A0319FE0A6D2E8534A6
:100CFA00003486340034873400348834003489342C
:100D0A00003405340034063400340734003408341F
:100D1A000034093400348134F8007608F000780889
:100D2A000A128A11AD260A128A11F90079080319E2
:100D3A009F2EA02EAA2E7708F00078080A128A1190
:100D4A00CC260A128A11F900AB2EF901790808009B
:100D5A00F500F401F40A053075020318B52EB62E13
:100D6A00C92E7508F1007107203E8400831300081C
:100D7A00F200840A0008F300720884008317731CC7
:100D8A00831370088000CA2EF40174080800F50065
:100D9A00F401F40A053075020318D42ED52EE82E74
:100DAA007508F10071072A3E840083130008F200D7
:100DBA00840A0008F300720884008317731C8313E3
:100DCA0070088000E92EF40174080800F600F501A5
:100DDA00F50A76080319F22EF32E432F452F013018
:100DEA00F00076088400000CF100F10C710C073950
:100DFA00013E012F0310F00DFF3E031DFF2E700868
:100E0A00FF3AFF007608840000080739F2007207EB
:100E1A002A3E84000008F300840A0008F4007308DC
:100E2A0084008317741C83137F088005522F0130B6
:100E3A00F00076088400000CF100F10C710C0739FF
:100E4A00013E292F0310F00DFF3E031D272F7008C6
:100E5A00FF007608840000080739F20072072A3E6C
:100E6A0084000008F300840A0008F4007308840070
:100E7A008317741C83137F088004522FF501522FA5
:100E8A00760884008313000D000D0139003A031916
:100E9A00F42E013A03191C2F432F750808000A1271
:100EAA008A115D260A128A11C73083120313B40508
:100EBA0034300A128A11EB260A128A11831203139A
:100ECA00BA00B801663083120313B7007630B60051
:100EDA00C030B500B50B6F2FB60B6F2FB70B6F2F46
:100EEA0000000130FF007F0883120313B8070630A1
:100EFA003802031C812F822F672FB41334300A1251
:100F0A008A11EB260A128A1183120313BA00B41744
:100F1A003408C7391838B40034300A128A11EB265B
:100F2A000A128A1183120313BA006630831203135A
:100F3A00B7007630B600C030B500B50BA22FB60B9D
:100F4A00A22FB70BA22F000083120313B41334305D
:100F5A000A128A11EB260A128A1183120313BA00A3
:100F6A00B4173408C7393038B40034300A128A1139
:100F7A00EB260A128A1183120313BA00B9016630EA
:100F8A0083120313B7007630B600C030B500B50B34
:100F9A00CC2FB60BCC2FB70BCC2F00000130FF00A3
:100FAA007F0883120313B90706303902031CDE2FA8
:100FBA00DF2FC42FB41334300A128A11EB260A1217
:100FCA008A1183120313BA00B417592F0A128A110D
:100FDA00002883133530FD000630FE007C30FF0008
:100FEA00203084000A128A116D260A128A1183019E
:060FFA000A128A11542FB7
:04400E00F220FF3E5F
:00000001FF
