:060000000A128A11E62F2E
:1006B80064008001840A04060319003404065D2BD3
:1006C800F8007808031D692B6A2B6C2BF701732B34
:1006D80078080A128A1174260A128A11F700770814
:1006E80008007E088A007F0882000A128A11752392
:1006F8000A128A118000840A04087D06031900344E
:10070800FF0A0319FE0A792B853400348634003435
:100718008734003488340034893400340534003494
:100728000634003407340034083400340934003403
:10073800FC007C08031DA12BA22BA42BFB01B72BCB
:100748007C080A128A1174260A128A11FB007B0897
:100758000319AF2BB02BB72B7C080A128A110C2473
:100768000A128A11FB007B080800F2017108F839A7
:100778000138F1007208F000F00DF00DF00D71086D
:100788007006C7397006F10071137208F00070071F
:10079800213E84007108831380007208F0007007FE
:1007A800223E840080010130FF007F08F2070830F4
:1007B8007202031CE02BE12BBA2B0800F20171082E
:1007C800F8390238F1007208F000F00DF00DF00D64
:1007D80071087006C7397006F10071177208F000C9
:1007E8007007313E84007108831380007208F0009E
:1007F8007007323E84008001800A0130FF007F08C4
:10080800F20702307202031C0A2C0B2CE32B08009F
:10081800FA007A08031D112C122C2A2CF9013D2C00
:100828007A08840080137A080A128A110B260A12A1
:100838008A11F9003D2C7A08840080177A080A1278
:100848008A110B260A128A11F9003D2C7A0A8400B3
:1008580083130008F700F8017808003A0319352CCB
:10086800122C7708003A0319142C013A03191F2C8B
:10087800122C790808000A128A11E2230A128A1136
:100888000A128A11B9230A128A1183120313CB019F
:1008980002304B020318512C522C5E2C4B08FD00E1
:1008A8007D07313E0A128A1164230A128A118312C3
:1008B8000313A0004B08FD007D07213E0A128A1190
:1008C8009C230A128A1183120313A0000130FF002F
:1008D8007F08CB0708304B02031C732C742C4C2C5C
:1008E8000800F700F601F60A770803197C2C7D2C1E
:1008F800AE2C70080319812C822CAE2C770884004A
:10090800831300080739F1007107413E840000088D
:10091800F200840A0008F300720884008317731C2D
:1009280083130008F400770884008313000CF50093
:10093800F50C750C0739013EA32C0310F40CFF3E8F
:10094800031DA12C74080139FF00700884007F087A
:100958008000AF2CF60176080800FC007C08031D17
:10096800B62CB72CB92CFB01EE2C7808F0007C08CB
:100978000A128A1175240A128A11FB00DB2C7808E6
:1009880084000003031DC92CCA2CCE2C78088400CF
:100998008001EE2C780884008001800AEE2C78080B
:1009A80084000008031DD92CDA2CCE2CCA2C7C0A12
:1009B800840083130008F900FA017A08003A031941
:1009C800E62CEE2C7908003A0319C32C013A0319D6
:1009D800D32CEE2C7B0808000A128A113F240A1235
:1009E8008A113630F80031300A128A11B1240A12FD
:1009F8008A1183120313A0003530F80033300A122D
:100A08008A11B1240A128A1183120313A00035082F
:100A1800031D0F2D102D1B2D3608031D142D152D0C
:100A28001B2D0A128A11DF260A128A11F52C3508A5
:100A3800031D1F2D202D2B2D36080319242D252DA0
:100A48002B2D0A128A1144250A128A11F52C350811
:100A580003192F2D302D3B2D3608031D342D352D30
:100A68003B2D0A128A11A7250A128A11F52C0A129F
:100A78008A1156270A128A11F52C0A128A1100289F
:100A88000730FD003630F80031300A128A11B124DF
:100A98000A128A1183120313A0003530F80033308C
:100AA8000A128A11B1240A128A1183120313A000B0
:100AB8003508031D602D612DA62D3608031D652DF3
:100AC800662D672DA62D7D08CB004B07223E84009E
:100AD80083138001800A7D08CB004B07213E0A1250
:100AE8008A110C240A128A1183120313A0007D08AC
:100AF800CB004B07223E840083138001033083120E
:100B08000313CD008A30CC005530CB00CB0B8A2D97
:100B1800CC0B8A2DCD0B8A2D7D0883120313CB00B5
:100B28004B07213E0A128A110C240A128A118312D9
:100B38000313A000FF30FF007F08FD07FD1FA52D50
:100B4800A62D462D0800FD013630F80031300A1276
:100B58008A11B1240A128A1183120313A0003530B6
:100B6800F80033300A128A11B1240A128A1183124A
:100B78000313A00035080319C22DC32D0A2E360809
:100B88000319C72DC82DC92D0A2E7D08CB004B0788
:100B9800223E840083138001800A7D08CB004B0726
:100BA800213E0A128A110C240A128A118312031395
:100BB800A0007D08CB004B07223E840083138001F0
:100BC800033083120313CD008A30CC005530CB009C
:100BD800CB0BEC2DCC0BEC2DCD0BEC2D7D08831223
:100BE8000313CB004B07213E0A128A110C240A1268
:100BF8008A1183120313A0000130FF007F08FD074C
:100C080008307D02031C092E0A2EA82D0800F600C4
:100C1800F501F50A76080319122E132E632E652E98
:100C28000130F00076088400000CF100F10C710C22
:100C38000739013E212E0310F00DFF3E031D1F2E24
:100C48007008FF3AFF007608840000080739F200B0
:100C58007207413E84000008F300840A0008F4008B
:100C6800730884008317741C83137F088005722E11
:100C78000130F00076088400000CF100F10C710CD2
:100C88000739013E492E0310F00DFF3E031D472E84
:100C98007008FF007608840000080739F200720720
:100CA800413E84000008F300840A0008F400730839
:100CB80084008317741C83137F088004722EF50147
:100CC800722E760884008313000D000D0139003A56
:100CD8000319142E013A03193C2E632E75080800D7
:100CE800F600F501F50A760803197B2E7C2ECC2E2A
:100CF800CE2E0130F00076088400000CF100F10CD3
:100D0800710C0739013E8A2E0310F00DFF3E031DBA
:100D1800882E7008FF007608840000080739F20062
:100D28007207373E84000008F300840A0008F400C4
:100D3800730884008317741C83137F088004DD2ED6
:100D48000130F00076088400000CF100F10C710C01
:100D58000739013EB12E0310F00DFF3E031DAF2EE3
:100D68007008FF3AFF007608840000080739F2008F
:100D78007207373E84000008F300840A0008F40074
:100D8800730884008317741C83137F088005DD2E85
:100D9800F501DD2E760884008313000EF000F00CB8
:100DA800700C0139003A0319A42E013A03197D2E5B
:100DB800CC2E7508080083120313CE01CF013630FC
:100DC800F80031300A128A11B1240A128A118312EA
:100DD8000313A0003530F80033300A128A11B12409
:100DE8000A128A1183120313A0003608031DFD2E70
:100DF800FE2E3B2F35080319022F032F042F3B2FFC
:100E08004E08031D082F092F1E2F4F08CB004B0734
:100E1800223E840083138001800A4F08CB004B07D1
:100E2800213E0A128A110C240A128A118312031312
:100E3800A000312F4F08CB004B07223E84008313BC
:100E480080014F08CB004B07213E0A128A110C245F
:100E58000A128A1183120313A0000130FF007F08D1
:100E6800CF0708304F02031C3A2F3B2FE32E0630E2
:100E780083120313CD001330CC00AD30CB00CB0B65
:100E8800432FCC0B432FCD0B432F0130FF007F089E
:100E980083120313CE0702304E02031C542F552F22
:100EA800E22E080083120313CE010730CF00DF2F94
:100EB8003630F80031300A128A11B1240A128A1128
:100EC80083120313A0003530F80033300A128A1158
:100ED800B1240A128A1183120313A00035080319DA
:100EE800762F772FE52F3608031D7B2F7C2F7D2F3C
:100EF800E52F4E08CB004B07223E84008313800168
:100F0800800A4F08CB004B07223E84008001800AEC
:100F18004E08CB004B07213E0A128A110C240A12F4
:100F28008A1183120313A0004F08CB004B07213E00
:100F38000A128A110C240A128A1183120313A000C0
:100F48004E08CB004B07223E8400831380014F08D4
:100F5800CB004B07223E8400800104308312031328
:100F6800CD000C30CC003330CB00CB0BB92FCC0BE1
:100F7800B92FCD0BB92F831203134E08CB004B07A3
:100F8800213E0A128A110C240A128A1183120313B1
:100F9800A0004F08CB004B07213E0A128A110C24EF
:100FA8000A128A1183120313A0000130FF007F0880
:100FB800CE070130CF024F084E02031CE42FE52F65
:100FC8005C2F080083134B30FD000330FE0088308F
:100FD800FF00373084000A128A1179230A128A1115
:100FE8002030840037300A128A115C230A128A11D1
:080FF80083010A128A11F02C9A
:04400E00F220FF3E5F
:00000001FF
