:060000000A128A11E62F2E
:100A9400F8007808031D4F2D502D522DF701592DC4
:100AA40078080A128A117B270A128A11F70077083C
:100AB4000800F900F801F80A7908031D622D632D76
:100AC400652DF8016B2D79080A128A11A4250A12E2
:100AD4008A1178080800F900F801F80A7908031D5A
:100AE400742D752D772DF8017D2D79080A128A1140
:100AF400B9250A128A1178080800F900F801F80AE1
:100B04007908031D862D872D892DF8018F2D7908ED
:100B14000A128A11CE250A128A11780808007E0862
:100B24008A007F0882000A128A1191250A128A110A
:100B34008000840A04087D0603190034FF0A03199F
:100B4400FE0A952DF7007708031DA92DAA2DAB2DBC
:100B5400B82D77080A128A1140260A128A117708DA
:100B6400013E0A128A1173260A128A110800F7003C
:100B74007708031DBE2DBF2DC02DCD2D7708013E56
:100B84000A128A1140260A128A1177080A128A1157
:100B940073260A128A110800F7007708031DD32D63
:100BA400D42DD52DE22D7708013E0A128A11732621
:100BB4000A128A1177080A128A1173260A128A11F4
:100BC4000800853400348634003487340034883493
:100BD40000348934003405340034063400340734D6
:100BE400003408340034093400343A3432344A349A
:100BF4004234F800F701F70A7808031D022E032E89
:100C0400052EF701122E78080A128A117B270A1280
:100C14008A117808013E0A128A117B270A128A1166
:100C240077080800831203133708BC00BD01BD0A0E
:100C34003608BA00BB01BB0A3508B8003408B9004D
:100C44003C300A128A114A250A128A1183120313AC
:100C5400C4003A300A128A114A250A128A118312F0
:100C64000313C40038300A128A11FB250A128A11B0
:100C740083120313C400BF01BE010800F600F5018E
:100C8400F50A76080319472E482E702E0130F0001D
:100C9400760884008313000CF100F10C710C073901
:100CA400013E562E0310F00DFF3E031D542E700816
:100CB400FF007608840000080739F20072072A3E14
:100CC40084000008F300840A0008F4007308840018
:100CD4008317741C83137F088004712EF501750833
:100CE4000800F600F501F50A760803197A2E7B2E22
:100CF400A42E0130F000760884008313000CF10068
:100D0400F10C710C0739013E892E0310F00DFF3EE2
:100D1400031D872E7008FF3AFF0076088400000840
:100D24000739F20072072A3E84000008F300840A9F
:100D34000008F400730884008317741C83137F086D
:100D44008005A52EF50175080800F700F601F60ADE
:100D540077080319AE2EAF2EE02E70080319B32EB8
:100D6400B42EE02E77088400831300080739F100BD
:100D740071072A3E84000008F200840A0008F30088
:100D8400720884008317731C83130008F400770827
:100D940084008313000CF500F50C750C0739013E33
:100DA400D52E0310F40CFF3E031DD32E7408013915
:100DB400FF00700884007F088000E12EF6017608A9
:100DC4000800FC007C08031DE82EE92EEB2EFB0135
:100DD400202F7808F0007C080A128A11A7260A122C
:100DE4008A11FB000D2F780884000003031DFB2EDD
:100DF400FC2E002F780884008001202F78088400BE
:100E04008001800A202F780884000008031D0B2F1E
:100E14000C2F002FFC2E7C0A840083130008F90099
:100E2400FA017A08003A0319182F202F7908003A9A
:100E34000319F52E013A0319052F202F7B0808000A
:100E44000A128A1114260A128A113F30F8003C3023
:100E54000A128A11E3260A128A1183120313C400A8
:100E64003F080319362F372F272FBF013E30F800D4
:100E74003A300A128A11E3260A128A1183120313E2
:100E8400C4003E08031D472F482F522F38300A1242
:100E94008A116D250A128A1183120313C4005B2F71
:100EA40038300A128A115B250A128A11831203133D
:100EB400C4003E08FD003E30F8003A300A128A11A0
:100EC400E3260A128A1183120313C4003E087D0626
:100ED40003196D2F6E2F5D2F38300A128A117F256A
:100EE4000A128A1183120313C400272F0A128A11CB
:100EF4000028F600F501F50A76080319822F832FDE
:100F0400D32FD52F0130F00076088400000CF100B7
:100F1400F10C710C0739013E912F0310F00DFF3EC7
:100F2400031D8F2F7008FF0076088400000807391E
:100F3400F2007207203E84000008F300840A0008CF
:100F4400F400730884008317741C83137F088004DF
:100F5400E42F0130F00076088400000CF100F10C5D
:100F6400710C0739013EB82F0310F00DFF3E031D2D
:100F7400B62F7008FF3AFF0076088400000807398E
:100F8400F2007207203E84000008F300840A00087F
:100F9400F400730884008317741C83137F0880058E
:100FA400E42FF501E42F760884008313000EF0008B
:100FB400F00C700C0139003A0319AB2F013A0319F4
:100FC400842FD32F7508080083133830FD000530B3
:100FD400FE00E330FF00203084000A128A119525B8
:100FE4000A128A11B801B901BA01BB01BC01BD01E1
:0C0FF400BE01BF0183010A128A11222FE6
:04400E00F220FF3E5F
:00000001FF
